{
  "contractName": "FactoryPattern",
  "abi": [
    {
      "anonymous": false,
      "inputs": [
        {
          "indexed": false,
          "internalType": "address",
          "name": "dummyAddress",
          "type": "address"
        }
      ],
      "name": "createdAddress",
      "type": "event"
    },
    {
      "constant": false,
      "inputs": [
        {
          "internalType": "uint256",
          "name": "x",
          "type": "uint256"
        }
      ],
      "name": "createPair",
      "outputs": [],
      "payable": false,
      "stateMutability": "nonpayable",
      "type": "function"
    }
  ],
  "bytecode": "0x608060405234801561001057600080fd5b506101fc806100206000396000f3fe608060405234801561001057600080fd5b506004361061002b5760003560e01c8063ced78e2514610030575b600080fd5b61005c6004803603602081101561004657600080fd5b810190808035906020019092919050505061005e565b005b60606040518060200161007090610128565b6020820181038252601f19601f820116604052509050600082604051602001808281526020019150506040516020818303038152906040528051906020012090506000818351602085016000f590507f5faddcd58a8cb48987d9d3b7b130071c5f4edd406da79339c9dc8154d88180e381604051808273ffffffffffffffffffffffffffffffffffffffff1673ffffffffffffffffffffffffffffffffffffffff16815260200191505060405180910390a150505050565b6093806101358339019056fe6080604052348015600f57600080fd5b506040516093380380609383398181016040526020811015602f57600080fd5b81019080805190602001909291905050508060008190555050603e8060556000396000f3fe6080604052600080fdfea265627a7a7231582093c1667a151b9e0480f2832be9f4c779066a8bd338f910a83d3898d1ce421d5b64736f6c634300050c0032a265627a7a723158206c01a14d3ffbb92c21cce7b912524a080a794204fb137c4cdd1abe730ce448a064736f6c634300050c0032",
  "source": "pragma solidity ^0.5.12;\r\n\r\n\r\ncontract Dummy {\r\n    uint256 x;\r\n\r\n    constructor(uint256 _x) public {\r\n        x = _x;\r\n    }\r\n}\r\n\r\n\r\ncontract FactoryPattern {\r\n    event createdAddress(address dummyAddress);\r\n\r\n    function createPair(uint256 x) public {\r\n        bytes memory bytecode = type(Dummy).creationCode;\r\n        bytes32 salt = keccak256(abi.encodePacked(x));\r\n        address pair;\r\n        assembly {\r\n            pair := create2(0, add(bytecode, 32), mload(bytecode), salt)\r\n        }\r\n        // Dummy(pair).initialize(x);\r\n        emit createdAddress(pair);\r\n    }\r\n}\r\n",
  "sourcePath": "E:/BLOCKCHAIN_STUFF/SWAPI_FACTORY_RD/FACTORY_CONTRACT/contracts/FactoryPattern.sol",
  "compiler": {
    "name": "solc",
    "version": "0.5.12+commit.7709ece9.Emscripten.clang"
  },
  "schemaVersion": "3.0.20",
  "updatedAt": "2020-04-28T10:04:00.846Z",
  "networkType": "ethereum",
  "devdoc": {
    "methods": {}
  },
  "userdoc": {
    "methods": {}
  }
}